:100000000C942C010C9454010C9454010C94540144
:100010000C9454010C9454010C9454010C9454010C
:100020000C9454010C9454010C94CB060C943A0794
:100030000C9454010C9454010C9454010C945401EC
:100040000C9454010C9454010C9454010C945401DC
:100050000C9454010C9454010C9454010C946C09AC
:100060000C9454010C9454010C9454010C945401BC
:100070000C9454010C9454010C9454010C945401AC
:100080000C9454010C9454010C9454010C9454019C
:100090000C9454010C9454010C9454010C9454018C
:1000A0000C9454010C9454010C9454010000000071
:1000B000000000002A2B28000000000000000000C3
:1000C0000000000000000000000000002C9EB4A012
:1000D000A1A2A434A6A7A5AE362D3738271E1F200F
:1000E000212223242526B333B62EB7B89F848586D4
:1000F0008788898A8B8C8D8E8F9091929394959618
:100100009798999A9B9C9D2F3130A3AD3504050695
:100110000708090A0B0C0D0E0F10111213141516F7
:100120001718191A1B1C1DAFB1B0B5000000000054
:10013000240027002A002D003000000000002500C8
:1001400028002B002E003100080B000202020000E4
:10015000090400000102020000052400100105242A
:10016000010101042402060524060001070581039C
:1001700010004009040100020A0000000705020205
:100180004000000705830240000004030904120137
:100190000002EF0201404F1B069200010102030121
:1001A000537061726B46756E00537061726B467569
:1001B0006E2050726F204D6963726F000000000066
:1001C0002300260029002C002F000404040404034B
:1001D00004050202020204030202020206060606E7
:1001E000060604040202020404040802011040800E
:1001F000401020408040800802040180402010020E
:1002000001108010204040200000000200090F0073
:1002100000030401000C00000000000000000000CA
:1002200000000000000005010906A1018502050784
:1002300019E029E71500250175019508810295014E
:1002400075088103950675081500257305071900C3
:1002500029738100C000B60911241FBECFEFDAE078
:10026000DEBFCDBF11E0A0E0B1E0ECEFF8E102C0ED
:1002700005900D92AA3EB107D9F724E0AAEEB1E0AD
:1002800001C01D92A03DB207E1F711E0CCE2D1E040
:1002900004C02197FE010E94760CCB32D107C9F72A
:1002A0000E94480A0C947C0C0C940000CF93DF93BE
:1002B000FC0181819091A104482F490F5527551FBA
:1002C000483051059CF5A281B381109709F52DE9BD
:1002D00034E033832283208120939F048093A00401
:1002E0008091A204820F80832091A304A22FB09159
:1002F000A4048A2F821B8917E8F481813D91C82FBD
:10030000D0E0C45FDE4F38838F5F8183F2CFD901A5
:1003100018962D913C91199721153105C1F72DE9BA
:1003200034E019963C932E931897D5CF80E0DF9157
:10033000CF91089581E0FBCFFC0180914C0488238C
:1003400011F13FB7F89482E08093E9002091F20028
:10035000822F90E01816190614F481E090E08823AB
:1003600039F0289844E640934B044091F1004083D3
:10037000222339F02091F200211103C02BE62093B3
:10038000E8003FBF08958FEF9FEF08954091FD0172
:100390005091FE012091FB013091FC01421753075F
:1003A000B4F49091E8009570E1F39091E80092FD2B
:1003B00019C08093F1008091FD019091FE0101969A
:1003C0008F739927892B19F48EEF8093E800809121
:1003D000FD019091FE0101969093FE018093FD0135
:1003E00081E0089580E00895EF92FF920F931F93AC
:1003F000CF93DF93F82E192FE62E042F81E0860F7E
:10040000880F0E94C60183E00E94C601CF2DD12F24
:10041000EC0EFD2EF11CCE15DF05B9F007FF13C061
:10042000FE0184910E94C601182F80E00E94C6013F
:10043000812321968111EFCFDF91CF911F910F91F1
:10044000FF90EF9008958881EDCF81E0F5CFDF92A6
:10045000EF92FF920F931F93CF93DF93D82E8A01D1
:10046000EB017B01E40EF51ECE15DF0559F0D7FE3A
:1004700012C0FE0184910E94C60121968111F4CF21
:100480000FEF1FEFC801DF91CF911F910F91FF90E8
:10049000EF90DF9008958881EECF2FB7F8948770A2
:1004A0008093E9009091E800892F807295FF04C045
:1004B0009091F20080E4891B2FBF0895615030F0C5
:1004C0002091F100FC0120830196F8CF289884E662
:1004D00080934B0408958091F30181110DC082E057
:1004E0008093EF0184E08093F0011092F20110926A
:1004F000F10181E08093F3018FEE91E008950F9375
:100500001F93CF93DF931F92CDB7DEB782E089832D
:1005100042E450E068E471E080E80E9427020E9413
:100520006B02DC0112960D911C910115110589F0E9
:10053000D801ED91FC910280F381E02DBE016F5F47
:100540007F4FC801099597FD04C0F801008511850A
:10055000ECCF89810F90DF91CF911F910F9108957A
:10056000CF93DF931F92CDB7DEB76983DC01ED91A6
:10057000FC910280F381E02D41E050E0BE016F5F0D
:100580007F4F09950F90DF91CF91089583E080937D
:10059000E9008091F200882319F08AE38093E80053
:1005A000089583E00E944D0290E00895CF93DF9379
:1005B0001F92CDB7DEB7FC018485958597FD08C0F5
:1005C0002FEF3FEF358724870F90DF91CF9108956C
:1005D000CE0101960E949C01019719F4898190E057
:1005E000F3CF8FEF9FEFF0CF0F931F93CF93DF9356
:1005F0001F92CDB7DEB78C01FC018485958597FFEE
:100600000BC0CE0101960E949C01019771F4898173
:1006100090E0F80195878487F801848595850F908F
:10062000DF91CF911F910F9108958FEF9FEFF1CF41
:10063000FC018485958597FD0BC09FB7F89482E0F7
:100640008093E9008091F2009FBF90E001960895A9
:100650009FB7F89482E08093E9008091F2009FBFF9
:1006600090E0089581508F3008F047C0E82FF0E007
:10067000E45CFC4F0C94760C59035D034B0351036F
:1006800055037D037D037D03600366036A036E03E8
:1006900074037D037803809180008F7780938000BE
:1006A0000895809180008F7DF9CF80918000877FB1
:1006B000F5CF84B58F7784BD089584B58F7DFBCF4A
:1006C000809190008F7780939000089580919000A2
:1006D0008F7DF9CF80919000877FF5CF8091C0000A
:1006E0008F778093C00008958091C0008F7DF9CFEF
:1006F0008091C200877F8093C20008951F93CF939B
:10070000DF93282F30E0F901E85FFD4F8491F90174
:10071000E751FE4FD491F901E653FE4FC491CC232B
:10072000A9F0162F81110E943203EC2FF0E0EE0F9A
:10073000FF1FE65CFE4FA591B4918FB7F894EC9142
:10074000111108C0D095DE23DC938FBFDF91CF91CC
:100750001F910895DE2BF8CFCF93DF9390E0FC013B
:10076000E751FE4F249186539E4FFC0184918823CC
:10077000D1F090E0880F991FFC01E45DFE4FA59138
:10078000B491FC01E65CFE4FC591D491623071F4E6
:100790009FB7F8943C91822F809583238C93E881B6
:1007A0002E2B28839FBFDF91CF9108958FB7F894A8
:1007B000EC912E2B2C938FBFF6CF3FB7F8948091FE
:1007C000EB019091EC01A091ED01B091EE0126B505
:1007D000A89B05C02F3F19F00196A11DB11D3FBF79
:1007E000BA2FA92F982F8827BC01CD01620F711D48
:1007F000811D911D42E0660F771F881F991F4A9542
:10080000D1F70895CF92DF92EF92FF920E94DD031D
:100810006B017C010E94DD036C197D098E099F0923
:10082000683E734081059105A8F3FF90EF90DF903B
:10083000CF9008957F928F929F92AF92BF92CF9266
:10084000DF92EF92FF920F931F93CF93DF93C82E07
:100850008B017A0180914C04811110C08FEF9FEFC2
:10086000DF91CF911F910F91FF90EF90DF90CF908C
:10087000BF90AF909F908F907F90089580910102DC
:1008800080FF05C08091E00082608093E000CE2D63
:10089000DF2DD12C8AEFB82E8C2D8770982E8C2DC1
:1008A0008072882E8C2D8074782E9AE3A92E209742
:1008B00019F4DD2009F44EC08C2D0E944D028111E7
:1008C00006C0BA94BB2051F20E940204F0CF8C17EC
:1008D0001D0611F00CF08C2F9FB7F8949092E90050
:1008E0002091E80025FD02C09FBFE1CF282F30E016
:1008F000C21BD30B882029F08150A0F01092F10088
:10090000FBCFF801C7FC0AC0815050F041914093E1
:10091000F100FACF44914093F10031968150D0F725
:10092000020F131FDD2021F0A092E800D12CDCCFB4
:100930008091E80085FD07C0A092E800DD24D394F3
:10094000209791F2F3CF209779F6772069F2A09261
:10095000E800CACF5D9884E680930002C70180CF8B
:10096000EF92FF921F93CF93DF931F92CDB7DEB725
:100970007C018091AE0481112AC011E01093A10482
:100980001093A20487EA94E09093A4048093A304B4
:100990001092A6041092A50485ED91E090939E0418
:1009A00080939D041092A9041092A8041092AB04A5
:1009B0001092AA041093AC041093AD0481EC8093C0
:1009C000A7040E946B020E9456011093AE0482E0BD
:1009D000898341E050E0BE016F5F7F4F8091A004AA
:1009E0000E941A0497FD08C08091A00448E050E0DE
:1009F000B70180640E941A040F90DF91CF911F917C
:100A0000FF90EF900895CF93DF93EC0180910B015D
:100A1000882331F083E00E941A041816190634F076
:100A200081E090E09B838A8380E090E0DF91CF912A
:100A30000895DC01FB0112962C9112978481958117
:100A40002817190641F491818081813A31F49D7F04
:100A500081E0913009F080E008958132E1F79B3028
:100A600029F482811F968C9381E008959A3099F73A
:100A7000828150968C93F8CFDC01FB0188E480835F
:100A800089E4818384E482831D969C911D979F70E5
:100A90009F5B93831D968D919C9124E096958795FD
:100AA0002A95E1F78F708F5B848385E00895EF923C
:100AB000FF920F931F93CF93DF93FB012081213887
:100AC00071F52381223259F5DC0112964C91248173
:100AD00035814217130619F5EC010B851C85F12CA5
:100AE000E12C0115110589F0F801448155816281DD
:100AF000738180E80E9427028F3F980749F0E80E33
:100B0000F91ED8010D911C91ECCF81E08F87C701B0
:100B1000DF91CF911F910F91FF90EF90089590E09A
:100B200080E0F6CFCF93DF93CDB7DEB769970FB6EE
:100B3000F894DEBF0FBECDBFFC01DB018C918F5F4F
:100B40008C939E012D5F3F4F8DE0D9011D928A95B8
:100B5000E9F729E0298384E08A8391E09D8383E09B
:100B60008E832A8721E22B879C879D879F8722E29D
:100B7000288B27E02B8B25E02C8B8E8B20E430E01C
:100B8000388F2F8B998F82818B8395858685998B62
:100B90008A8B838180688D8B49E150E0BE016F5F55
:100BA0007F4F80E00E94270269960FB6F894DEBF5F
:100BB0000FBECDBFDF91CF910895CF92DF92EF921C
:100BC000FF920F931F93CF93DF936C01EB017B0197
:100BD000E40EF51E10E000E0CE15DF0581F069910E
:100BE0006D30D1F3D601ED91FC910190F081E02DB3
:100BF000C6010995892B19F00F5F1F4FEDCFC80172
:100C0000DF91CF911F910F91FF90EF90DF90CF90E8
:100C10000895DC016838A0F06858FD0186E066237D
:100C200021F09681961301C0168281503196811170
:100C3000F6CFCD0104960E94B00481E090E00895C3
:100C4000E62FF0E067FF12C0E058F10981E090E084
:100C500001C0880FEA95EAF7809514969C91149745
:100C6000892314968C93149760E0D7CFE455FF4FF7
:100C70006491662359F067FFD0CF14968C91149736
:100C80008D7F14968C9314976F77C7CF90E080E098
:100C90000895DC01683888F1685816968C9116978B
:100CA000861721F117968C9117978617F9F01896E9
:100CB0008C9118978617D1F019968C9119978617F1
:100CC000A9F01A968C911A97861781F01B968C9131
:100CD0001B97861759F0FD01369690E080E0219130
:100CE000211139C08A0F9B1FFC016683CD01049638
:100CF0000E94B00481E090E00895E62FF0E067FFE5
:100D000011C0E058F10921E030E001C0220FEA955E
:100D1000EAF714968C911497822B14968C9314975F
:100D200060E0BBCFE455FF4F6491611109C081E0E1
:100D300090E013969C938E93129790E080E0089534
:100D400067FFABCF14968C911497826014968C93A6
:100D500014976F77A2CF01968630910509F0BFCF27
:100D6000E6CFEF92FF921F93CF93DF93EC01162F04
:100D70000E9449067C01612FCE010E940906C7012D
:100D80009927DF91CF911F91FF90EF9008950895DB
:100D900090E080E008951F920F920FB60F921124F9
:100DA0008F939F938091E1009091E100937F9093C6
:100DB000E10083FF0FC01092E90091E09093EB00F7
:100DC0001092EC0092E39093ED0010924C0498E0A6
:100DD0009093F00082FF22C093E09093E9009091FD
:100DE000F200992319F09AE39093E80090910002A1
:100DF000992341F09091000291509093000291113B
:100E000001C05D9A90914B04992341F090914B045D
:100E1000915090934B04911101C0289A84FF18C0FF
:100E20008091E2008E7E81608093E2008091E100FB
:100E30008F7E8093E100809101028E7E806180939D
:100E400001029F918F910F900FBE0F901F901895E8
:100E500080FFF7CF8091E2008E7E80618093E20078
:100E60008091E1008E7E8093E100809101028E7E70
:100E70008160E5CF1F920F920FB60F921124CF928F
:100E8000DF92EF92FF920F931F932F933F934F9315
:100E90005F936F937F938F939F93AF93BF93EF93E2
:100EA000FF93CF93DF93CDB7DEB76C97DEBFCDBF97
:100EB0001092E9008091E80083FF25C068E0CE0130
:100EC00045960E945E0282EF8093E8008D8987FF3D
:100ED00039C09091E80090FFFCCF982F907609F0F0
:100EE00034C19E894F89588D2F89F88C911131C05A
:100EF000803861F5809102028093F1001092F10038
:100F00008EEF8093E8006C960FB6F894DEBF0FBEAC
:100F1000CDBFDF91CF91FF91EF91BF91AF919F91A5
:100F20008F917F916F915F914F913F912F911F9181
:100F30000F91FF90EF90DF90CF900F900FBE0F902A
:100F40001F9018959EEF9093E800C7CF1092F10084
:100F5000D5CF913059F48111D3CF4130510581F66D
:100F6000809102028D7F80930202CACF933049F4B0
:100F70008111C6CF4130510519F68091020282607D
:100F8000F2CF953041F48091E80080FFFCCF2068DB
:100F90002093E300B5CF963009F0A9C00B8D1C8DCE
:100FA00022E01092E9001092FE011092FD01F2126F
:100FB0002EC01092FC011092FB010E947F021F8242
:100FC00099E09983FA8291E09E8390EA98879AEF5C
:100FD00099872091FD013091FE01275F3F4F3C83AF
:100FE0002B838D831092E9001092FE011092FD0177
:100FF0001093FC010093FB0149E050E0BE016F5FDC
:101000007F4F80E00E9427020E947F0279CF1093D9
:10101000FC010093FB010E946B02DC0112960D9112
:101020001C910115110509F451C1D801ED91FC91F4
:101030000480F581E02DBE016B5E7F4FC8010995EC
:10104000009709F03EC1F80100851185EACFF3E071
:10105000FF120EC08F89882309F440C0823061F4EA
:1010600040E862E189EA91E00E94F401811148CFF1
:1010700081E28093EB0047CF813029F440E868E0BB
:1010800080EA91E0F1CF833099F70E946B02DC0196
:101090001296ED90FC908E010F5F1F4F6801E114D6
:1010A000F10479F0D701ED91FC910680F781E02DF4
:1010B000B801C7010995080F111DF701E084F184FB
:1010C000EECFD8011C92F60101900020E9F731978C
:1010D000BF016C197D0940E0C601C6CF6AE871E026
:1010E000FB01449150E080E80E94270209CF97302D
:1010F00009F4BECF983021F481E08093F10000CF55
:10110000993009F0FDCE837009F0B2CFEDE0F1E047
:1011100081E031E096E32191222371F08093E90090
:101120003093EB00DF0111972C912093EC0090930A
:10113000ED008F5F873079F78EE78093EA00109299
:10114000EA008F8980934C04DBCE8B8D9C8D1092AE
:10115000E9001092FE011092FD019093FC01809332
:10116000FB01898D811192C08E899D89913A49F444
:10117000813209F07DCF47E050E064E071E080E02B
:10118000B3CF913209F074CF833269F48F89988D8F
:10119000B0E0A0E08093000190930101A0930201D0
:1011A000B0930301ADCE803269F48091E80082FFF4
:1011B000FCCF67E084E091E00E945E028BEF8093B9
:1011C000E8009ECE823209F09BCE8F8980930B017E
:1011D000EEEFFFE7859194918B3F9C4D51F1E0E05C
:1011E000F8E08091040190910501A0910601B09171
:1011F0000701803B9440A105B105F1F480910B01FA
:1012000080FD1AC0EE3F8AE0F80789F587E797E787
:1012100091838083809160008093FF0188E19BE04F
:101220000FB6F894A895809360000FBE909360006D
:1012300067CEEEEFFAE0D5CF80819181873797476F
:1012400009F05ECEA895809160008861809360006F
:101250008091FF0180936000EE3F2AE0F20789F061
:101260008091FE0A9091FF0A9183808349CE80810C
:1012700091818737980751F29093FF0A8093FE0A75
:10128000C5CF1092FF0A1092FE0A3ACE0E946B025E
:10129000DC0112960D911C910115110509F4E8CE9F
:1012A000D801ED91FC910190F081E02DBE016B5EC3
:1012B0007F4FC8010995811123CEF8010085118562
:1012C000EBCF181619060CF41BCED2CEF1E0FF12AC
:1012D000BECE6EE871E004CF1F920F920FB60F9250
:1012E00011242F933F938F939F93AF93BF9380913C
:1012F000030290910402A0910502B0910602309180
:10130000EA0123E0230F2D3758F50196A11DB11DE9
:101310002093EA018093030290930402A0930502B4
:10132000B09306028091EB019091EC01A091ED0148
:10133000B091EE010196A11DB11D8093EB01909338
:10134000EC01A093ED01B093EE01BF91AF919F919D
:101350008F913F912F910F900FBE0F901F90189576
:1013600026E8230F0296A11DB11DD2CFCF93109274
:10137000500410924F0488EE93E0A0E0B0E0809318
:10138000510490935204A0935304B093540483ECFB
:1013900091E090934E0480934D048FEF9FEF9093D4
:1013A0005A04809359041092C7041092C60481EE27
:1013B00091E09093C5048093C4048091BC04811192
:1013C00013C01092B7041092B60486E292E0909394
:1013D000B9048093B8048FE290E09093BB048093AB
:1013E000BA0481E08093BC048091AE0481112AC0CC
:1013F000C1E0C093A104C093A20487EA94E0909353
:10140000A4048093A3041092A6041092A50485ED71
:1014100091E090939E0480939D041092A9041092F1
:10142000A8041092AB041092AA04C093AC04C09319
:10143000AD0481EC8093A7040E946B020E945601C8
:10144000C093AE04E091A804F091A9043097B9F4D8
:1014500086EB94E09093A9048093A8048091AA0459
:101460009091AB042091BA043091BB04820F931F7A
:101470009093AB048093AA04CF910895FC018081DE
:1014800091810097D9F786EB94E091838083E6CF32
:10149000789484B5826084BD84B5816084BD85B54F
:1014A000826085BD85B5816085BD80916E0081605B
:1014B00080936E0010928100809181008260809301
:1014C0008100809181008160809381008091800003
:1014D0008160809380008091910082608093910070
:1014E0008091910081608093910080919000816053
:1014F000809390008091C10084608093C1008091AE
:10150000C10082608093C1008091C100816080939E
:10151000C1008091C30081608093C3008091C000AE
:1015200082608093C0008091C20081608093C2007D
:1015300080917A00846080937A0080917A00826042
:1015400080937A0080917A00816080937A00809104
:101550007A00806880937A0010924C041092020204
:10156000109201028091D70081608093D70080EAB9
:101570008093D80089B5806189BD89B5826089BDB5
:1015800009B400FEFDCF0E9402048091D8008F7C38
:1015900080618093D8008091E000807F8093E0009C
:1015A0008091E1008E7E8093E1008DE08093E200E7
:1015B000559A209A8FEF9FEF90935A048093590485
:1015C00061E08AE00E94AC0361E080E10E94AC032C
:1015D00061E08EE00E94AC0361E08FE00E94AC030A
:1015E00062E084E00E94AC0362E085E00E94AC030C
:1015F00062E086E00E94AC0362E087E00E94AC03F8
:1016000062E088E00E94AC0362E089E00E94AC03E3
:1016100000E010E010924A0410924904C09149047D
:10162000D0914A04C031D10508F059C1CC0FDD1F5B
:10163000CC0FDD1FC158DE4F68818AE00E947E0317
:10164000698180E10E947E036A818EE00E947E03B0
:101650006B818FE00E947E03109248041092470431
:10166000C0914704D0914804C630D10508F02DC17F
:10167000FE01EE0FFF1FED58FE4F20813181332711
:10168000F901E85FFD4F8491F901E751FE4FE490C5
:10169000F901E653FE4FF490FF2009F498C0811140
:1016A0000E943203EF2DF0E0EE0FFF1FE454FE4FD7
:1016B000A591B491EC91EE2231E020E009F430E004
:1016C000832F922F4091490450914A0424E0CC0F7B
:1016D000DD1F2A95E1F7FE01E951FC4FE40FF51FEC
:1016E0009C0161E0262721702083892B09F072C0BC
:1016F000C957DC4FC40FD51F888181116BC02FB72C
:10170000F8948091030290910402A0910502B09197
:1017100006022FBFE0914704F0914804209149044C
:1017200030914A04C4E0EE0FFF1FCA95E1F7E20FC3
:10173000F31FEE0FFF1FEE0FFF1FE95FFD4F40810C
:10174000518162817381841B950BA60BB70B0697A1
:10175000A105B10508F43EC02FB7F89480910302AB
:1017600090910402A0910502B09106022FBF8083E0
:101770009183A283B3838091470490914804E091C0
:101780004904F0914A0474E0880F991F7A95E1F7B3
:10179000DC01A957BC4FAE0FBF1FEC01C951DC4F94
:1017A000CE0FDF1F28812C938D5E9E4FE80FF91F0F
:1017B000608184EC94E00E944906809147049091F6
:1017C00048040196909348048093470449CF90E0E1
:1017D00080E078CF8091470490914804E0914904DB
:1017E000F0914A0464E0880F991F6A95E1F7DC01E3
:1017F000A951BC4FAE0FBF1F2C912111DECF8957CD
:101800009C4FE80FF91F80818823B9F22FB7F89415
:101810008091030290910402A0910502B09106020A
:101820002FBFE0914704F091480420914904309182
:101830004A0444E0EE0FFF1F4A95E1F7E20FF31F61
:10184000EE0FFF1FEE0FFF1FE95FFD4F408151813B
:1018500062817381841B950BA60BB70B0697A105BC
:10186000B10508F4AACF2FB7F894809103029091A4
:101870000402A0910502B09106022FBF80839183DC
:10188000A283B3838091470490914804E091490476
:10189000F0914A0424E0880F991F2A95E1F7DC01B2
:1018A000A957BC4FAE0FBF1FEC01C951DC4FCE0F83
:1018B000DF1F28812C938D5E9E4FE80FF91F6081FA
:1018C00084EC94E00E94090678CF809149049091BD
:1018D0004A04019690934A04809349049FCE0115CF
:1018E000110509F497CE0E94000094CEEE0FFF1F61
:0C18F0000590F491E02D0994F894FFCFCE
:1018FC00FFFFFFFF00E100000000000000C180813D
:10190C00000000B1C2C3C4C5C6C7C8C9CACBCCCDC0
:10191C00CECFD060313233343536373839302D3D77
:10192C0008D2D30971776572747975696F705B5DD4
:10193C000AD5D6C16173646667686A6B6C3B275CB9
:10194C00D1000081EC7A786376626E6D2C2E2F8537
:10195C00D4DA00808382DCDDDE20DF84DB8600EDE0
:10196C00D8D9D704000500060007000800090000BC
:10197C000000000000000100000100000001010057
:10198C000100000001000100010100000101010142
:10199C000000000100000101000100010001010133
:1019AC000100000101000101010100010101010020
:1019BC00000000B0020305D102C6021803D602F4DF
:1019CC0002000000001905920557053C05000000B7
:0A19DC0000B106DD05C806C70600CD
:00000001FF
